:100000000C944F050C9477050C9477050C947705A8
:100010000C9477050C9477050C9477050C94770570
:100020000C9477050C9477050C9477050C94770560
:100030000C9477050C9477050C9477050C94770550
:100040000C94A5120C9477050C94DA0B0C94B40B59
:100050000C9477050C9477050C9477050C94770530
:100060000C94CD140C9477050000000800020100E8
:100070000003040700000000000000000001030767
:100080000F1F3F7F0080C0E0F0F8FCFE0000000082
:10009000003E5B4F5B3E3E6B4F6B3E1C3E7C3E1C0E
:1000A000183C7E3C181C577D571C1C5E7F5E1C0054
:1000B000183C1800FFE7C3E7FF0018241800FFE70B
:1000C000DBE7FF30483A060E2629792926407F05CE
:1000D0000507407F05253F5A3CE73C5A7F3E1C1CE4
:1000E00008081C1C3E7F14227F22145F5F005F5FA4
:1000F00006097F017F006689956A60606060609490
:10010000A2FFA29408047E040810207E2010080894
:100110002A1C08081C2A08081E101010100C1E0C9F
:100120001E0C30383E3830060E3E0E060000000031
:100130000000005F00000007000700147F147F1418
:10014000242A7F2A1223130864623649562050005D
:1001500008070300001C2241000041221C002A1C49
:100160007F1C2A08083E0808008070300008080834
:100170000808000060600020100804023E51494554
:100180003E00427F400072494949462141494D3372
:100190001814127F1027454545393C4A49493141D9
:1001A000211109073649494936464949291E0000A7
:1001B00014000000403400000008142241141414FC
:1001C0001414004122140802015909063E415D59E8
:1001D0004E7C1211127C7F494949363E41414122F1
:1001E0007F4141413E7F494949417F090909013E1B
:1001F000414151737F0808087F00417F4100204042
:10020000413F017F081422417F404040407F021C53
:10021000027F7F0408107F3E4141413E7F0909096A
:10022000063E4151215E7F09192946264949493236
:1002300003017F01033F4040403F1F2040201F3FFC
:100240004038403F63140814630304780403615981
:10025000494D43007F4141410204081020004141C3
:10026000417F04020102044040404040000307086F
:100270000020545478407F2844443838444444286B
:10028000384444287F385454541800087E09021812
:10029000A4A49C787F0804047800447D400020409A
:1002A000403D007F1028440000417F40007C0478DE
:1002B00004787C080404783844444438FC18242426
:1002C0001818242418FC7C080404084854545424A6
:1002D00004043F44243C4040207C1C2040201C3C23
:1002E0004030403C44281028444C9090907C44641A
:1002F000544C4400083641000000770000004136AD
:10030000080002010204023C2623263C1EA1A16132
:10031000123A4040207A3854545559215555794164
:100320002254547842215554784020545579400C39
:100330001E5272123955555559395454545939551C
:100340005454580000457C410002457D420001455F
:100350007C407D1211127DF0282528F07C545545F3
:10036000002054547C547C0A097F4932494949325F
:100370003A4444443A324A4848303A4141217A3A70
:1003800042402078009DA0A07D3D4242423D3D403C
:1003900040403D3C24FF2424487E4943662B2FFCEB
:1003A0002F2BFF0929F620C0887E09032054547999
:1003B000410000447D413048484A32384040227A6A
:1003C000007A0A0A727D0D19317D2629292F2826E7
:1003D0002929292630484D402038080808080808EF
:1003E0000808382F10C8ACBA2F102834FA00007B48
:1003F000000008142A142222142A1408550055005B
:1004000055AA55AA55AAFF55FF55FF000000FF0049
:10041000101010FF00141414FF001010FF00FF1044
:1004200010F010F0141414FC001414F700FF000076
:10043000FF00FF1414F404FC141417101F10101FF5
:10044000101F1414141F00101010F0000000001FE3
:10045000101010101F10101010F010000000FF10EE
:100460001010101010101010FF10000000FF1400EA
:1004700000FF00FF00001F10170000FC04F414141C
:100480001710171414F404F40000FF00F7141414E8
:1004900014141414F700F7141414171410101F1068
:1004A0001F141414F4141010F010F000001F101F8B
:1004B0000000001F14000000FC140000F010F010F9
:1004C00010FF10FF141414FF141010101F00000070
:1004D00000F010FFFFFFFFFFF0F0F0F0F0FFFFFF74
:1004E0000000000000FFFF0F0F0F0F0F38444438CB
:1004F00044FC4A4A4A347E02020606027E027E021A
:1005000063554941633844443C04407E201E200624
:10051000027E020299A5E7A5991C2A492A1C4C7261
:1005200001724C304A4D4D303048784830BC625AE8
:10053000463D3E494949007E0101017E2A2A2A2A78
:100540002A44445F444440514A444040444A514054
:100550000000FF0103E080FF000008086B6B083615
:1005600012362436060F090F060000181800000086
:100570001010003040FF0101001F01011E00191D75
:100580001712003C3C3C3C00000000000000000052
:10059000250028002B0000000000240027002A006E
:1005A0000404040404040404020202020202030319
:1005B0000303030301020408102040800102040821
:1005C0001020010204081020DB40A4A62EAF20005A
:1005D000A1C8D300408DAED580A800006000000007
:1005E0000000000000000000000000E0000000002B
:1005F00000000000000000000001E000000000001A
:10060000000000000000000001F0000000000000F9
:100610000000000000000003F000000000000000E7
:1006200000000000000007F00000000000000000D3
:10063000000000000007F8000000000000000000BB
:10064000000000000FF800000003C0007E00000161
:10065000E0007F0FF800000003C000FE000001E092
:1006600000FFEFF800000003C000FE000001E00002
:10067000FFFFF800000003C000F00000000F007F43
:10068000FE7FC0000003C000F00000000F003FFE2E
:100690007FF83FF1FBCFFCFEF3BC3DEFE01FFE7F98
:1006A000FF7FFBFFDFFEFEFFBC3DEFE01FC6FFFF4D
:1006B0007FFBFFDFFEFEFFBC3DEFE00FE3C7FE78F0
:1006C0007BC3DE1EF0FFBC3DEF0007FF87FC787B9D
:1006D000C3DE1EF0F83C3DEF0001FFFFF0007BC3DE
:1006E000C01EF0F03C3DEF0001F37FE03FFBC3CFC5
:1006F000FEF0F03C3DEF0003E33F807FFBC3DFFEF5
:10070000F0F03C3DEF0007E73C00787BC3DE1EF0D5
:10071000F03C3DEF0007FFBE00787BC3DE1EF0F02B
:100720003C3DEF0007FFFE00787BC3DE1EF0F03C8F
:100730003DEF000FFFFE007FFBFFDFFEF0F03FFD0F
:10074000EFE00FFFFF007FFBFFDFFEF0F03FFDEF6C
:10075000E00FF9FF003E79F9CF9EF0F01F3DE7E092
:100760001FF1FF0000000000000000000000001F5B
:1007700080FF007FFFFFFFFFFFFFFFFFFFE01C0088
:100780007F007FFFFFFFFEB46D888D18E000001F23
:10079000007FFFFFFFFE95AD7DB577E000000F0005
:1007A0007FFFFFFFFEA5AD9D8D19E0000006007FD5
:1007B000FFFFFFFEB5ADEDB57EE0000000000001DB
:1007C0008000000000000000000003800000000026
:1007D000000000000007C000000000000000000052
:1007E00007C00000000000000000000FC000000073
:1007F0000000000000001FE00000000000000000FA
:10080000001FE00000000000000000003FE00000CA
:10081000000000000000003FF000000000000000A9
:1008200000007FF0000000000000001FF87FF000D3
:100830000000000000003FFE7FF00000000000000C
:10084000003FFF7FF0000000000000001FFFFBE002
:10085000000000000000000FFFF9FFC000000000D2
:1008600000000FFFF9FFF800000000000007FFF193
:10087000FFFF00000000000003FC73FFFF8000008A
:1008800000000001FE3FFFFF80000000000000FFAD
:100890001E0FFF000000000000007FFE1FFC000094
:1008A00000000000003FFFFFF80000000000000013
:1008B0000FDFFFE0000000000000001F19FFC00074
:1008C0000000000000003F3CFF00000000000000AE
:1008D000007E7CF800000000000000007FFE7C002D
:1008E00000000000000000FFFFFC0000000000000E
:1008F0000000FFFFFE0000000000000000FFFFFE00
:100900000000000000000001FFEFFE0000000000FA
:10091000000001FFCFFE0000000000000003FF0701
:10092000FE0000000000000003FC07FE00000000C5
:1009300000000003F003FE00000000000000018042
:1009400000FE000000000000000000007E0000002B
:10095000000000000000003E000000000000000059
:1009600000000C000000000000078000FC000003F5
:10097000C0000000078001FC000003C00000000769
:100980008001FC000003C0000000078001E00000BF
:10099000001E000000078001E00000001E007FE351
:1009A000F79FF9FDE7787BDFC0FFF7FFBFFDFDFF95
:1009B000787BDFC0FFF7FFBFFDFDFF787BDFC0F076
:1009C000F787BC3DE1FF787BDE00F0F787BC3DE1B7
:1009D000F0787BDE0000F787803DE1E0787BDE0089
:1009E0007FF7879FFDE1E0787BDE00FFF787BFFDA3
:1009F000E1E0787BDE00F0F787BC3DE1E0787BDE6C
:100A000000F0F787BC3DE1E0787BDE00F0F787BCC3
:100A10003DE1E0787BDE00FFF7FFBFFDE1E07FFB1B
:100A2000DFC0FFF7FFBFFDE1E07FFBDFC07CF3F33A
:100A30009F3DE1E03E7BCFC00000000000000000D1
:100A4000000000FFFFFFFFFFFFFFFFFFFFC0FFFFF2
:100A5000FFFFFD68DB111A31C0FFFFFFFFFD2B5ABE
:100A6000FB6AEFC0FFFFFFFFFD4B5B3B1A33C0FF8C
:100A7000FFFFFFFD6B5BDB6AFDC053534431333036
:100A80003620616C6C6F636174696F6E206661699A
:100A90006C6564002200FF210000B017621C112465
:100AA0001FBECFEFD8E0DEBFCDBF23E0A4EBB1E0A7
:100AB00001C01D92A93AB207E1F711E0A0E0B1E050
:100AC000EAE5F2E402C005900D92A43BB107D9F724
:100AD00015E0CEE4D5E004C02197FE010E94171F67
:100AE000CD34D107C9F70E947B180C9420210C94B7
:100AF0000000CF92DF92EF92FF920F931F93CF935C
:100B0000DF936C017A018B01C0E0D0E0CE15DF05E8
:100B100081F0D8016D918D01D601ED91FC9101908C
:100B2000F081E02DC6010995892B11F02196EECFB9
:100B30007E01C701DF91CF911F910F91FF90EF9040
:100B4000DF90CF900895FC01538D448D252F30E028
:100B5000842F90E0821B930B541710F0CF960895CA
:100B600001970895FC01918D828D981761F0828D17
:100B7000DF01A80FB11D5D968C91928D9F5F9F73D1
:100B8000928F90E008958FEF9FEF0895FC01918D73
:100B9000828D981731F0828DE80FF11D858D90E0E0
:100BA00008958FEF9FEF0895FC01918D228D892F7D
:100BB00090E0805C9F4F821B91098F739927089565
:100BC0008FEF91E00E94D40521E0892B09F420E009
:100BD000822F0895FC01848DDF01A80FB11DA35A57
:100BE000BF4F2C91848D90E001968F739927848F4D
:100BF000A689B7892C93A089B1898C918370806470
:100C00008C93938D848D981306C00288F389E02D10
:100C100080818F7D80830895EF92FF920F931F93C1
:100C2000CF93DF93EC0181E0888F9B8D8C8D98139F
:100C300005C0E889F989808185FD26C0F62E0B8DD7
:100C400010E00F5F1F4F0F731127E02E8C8DE812FD
:100C50000CC00FB607FCFACFE889F989808185FFBF
:100C6000F5CFCE010E94EA05F1CF8B8DFE01E80F92
:100C7000F11DE35AFF4FF0829FB7F8940B8FEA897A
:100C8000FB89808180620AC09FB7F894EE89FF8952
:100C90006083E889F98980818370806480839FBF45
:100CA00081E090E0DF91CF911F910F91FF90EF9045
:100CB0000895CF93DF93EC01888D8823C9F0EA89EA
:100CC000FB89808185FD05C0A889B9898C9186FD45
:100CD0000FC00FB607FCF5CF808185FFF2CFA88942
:100CE000B9898C9185FFEDCFCE010E94EA05E7CF4F
:100CF000DF91CF91089580E090E0892B29F00E9448
:100D0000E00581110C9400000895FC0177FDB9C045
:100D100080859185681779070CF0B3C057FDB1C085
:100D200082859385481759070CF00895868982308B
:100D300079F484819581DC01A61BB70BBD0161505C
:100D4000710986819781DC01A41BB50BAD010EC032
:100D5000833009F084C064277527CA018627972746
:100D60006827792746815781481B590B4150510903
:100D70002130310531F048F12230310509F44AC003
:100D80000895CA0157FD07969C01A3E03595279564
:100D9000AA95E1F7A481B5812A9FC0012B9F900DF0
:100DA0003A9F900D1124680F791F078CF0A1E02D58
:100DB000E60FF71F4770552781E090E001C0880FCC
:100DC0004A95EAF79081892B48C0CA0157FD0796DA
:100DD0009C0193E0359527959A95E1F7A481B5811B
:100DE0002A9FC0012B9F900D3A9F900D1124680FF0
:100DF000791F078CF0A1E02DE60FF71F47705527EC
:100E000081E090E001C0880F4A95EAF780959081D3
:100E1000892323C0CA0157FD07969C0183E03595BD
:100E200027958A95E1F7A481B5812A9FC0012B9F60
:100E3000900D3A9F900D1124680F791F078CF0A137
:100E4000E02DE60FF71F4770552781E090E001C0C5
:100E5000880F4A95EAF79081892780830895813029
:100E600009F086CF642775274627572764277527FB
:100E700084819581DC01A61BB70BBD01615071090E
:100E800077CF08950895FC016370668B8481958106
:100E900026813781613039F0633029F0918780876E
:100EA0003387228708953187208793878287089523
:100EB0006F927F928F929F92AF92BF92CF92DF926A
:100EC000EF92FF920F931F93CF93DF93EC014B01AF
:100ED0005A0169013801E881F9810284F385E02D26
:100EE0000995E881F9810288F389E02D870196014F
:100EF000A501B401CE010995A501460D571D41502C
:100F00005109E881F9810288F389E02D9601B40145
:100F1000CE010995E881F9810088F189E02D9301DE
:100F2000A501B401CE010995C80CD91CB6016150C8
:100F30007109E881F9810088F189E02D9301A5010B
:100F4000CE010995E881F9810688F789E02DCE0167
:100F5000DF91CF911F910F91FF90EF90DF90CF9095
:100F6000BF90AF909F908F907F906F9009948F92D9
:100F70009F92AF92BF92CF92DF92EF92FF920F9328
:100F80001F93CF93DF934C016B015A01E901DC0100
:100F9000ED91FC916217730781F40417150724F48F
:100FA0008B2D5801042F182F0A191B0998012F5F48
:100FB0003F4F048CF58DE02D12C04017510709F505
:100FC0002617370724F48D2D6901C62FD82F9E01CF
:100FD0002C193D092F5F3F4F068CF78DE02D8701BF
:100FE000A501B601C4010995DF91CF911F910F9121
:100FF000FF90EF90DF90CF90BF90AF909F908F9039
:1010000008950284F385E02D0995D401ED91FC91BA
:101010000488F589E02D9E01A501B601C40109955A
:10102000D401ED91FC910688F789E02DC401DF9190
:10103000CF911F910F91FF90EF90DF90CF90BF90D5
:10104000AF909F908F900994EF92FF920F931F9310
:10105000DC011A960D911C911B9718962D913C91CD
:101060001997ED91FC9100A0F1A1E02D7B0140E0EA
:1010700050E060E070E009951F910F91FF90EF90B4
:1010800008954F925F926F927F928F929F92AF924C
:10109000BF92CF92DF92EF92FF920F931F93CF9365
:1010A000DF936C012B015A0139014801DC01ED91FC
:1010B000FC910284F385E02D0995E201640C751C16
:1010C000D601ED91FC91C615D7055CF40088F18935
:1010D000E02D87019401A501BE01C6010995219665
:1010E000EFCF0688F789E02DC601DF91CF911F91E0
:1010F0000F91FF90EF90DF90CF90BF90AF909F90B7
:101100008F907F906F905F904F9009948F929F92F5
:10111000AF92BF92CF92DF92EF92FF920F931F9305
:10112000CF93DF93EC015B014A016901E881F9810A
:101130000284F385E02D099595012C0D3D1D21506C
:101140003109E881F9810488F589E02D780184016D
:10115000A401B501CE010995E881F9810688F789D6
:10116000E02DCE01DF91CF911F910F91FF90EF9075
:10117000DF90CF90BF90AF909F908F9009948F9207
:101180009F92AF92BF92CF92DF92EF92FF920F9316
:101190001F93CF93DF93EC015B014A016901780152
:1011A000E881F9810284F385E02D0995C80CD91CEA
:1011B000860101501109E881F9810488F589E02D43
:1011C0009501A401B501CE010995E881F981068850
:1011D000F789E02DCE01DF91CF911F910F91FF9004
:1011E000EF90DF90CF90BF90AF909F908F90099439
:1011F0000895EF92FF920F931F93DC01ED91FC9104
:1012000000A0F1A1E02D09951F910F91FF90EF90A3
:1012100008950F931F93CF93DF93DC015696EC91C3
:101220005697E23071F0E330E9F0E13079F5FB01F7
:1012300014960D90BC91A02DA41BB50BA21BB30B53
:1012400018C0EC01EC81FD81E61BF70BBF0161507A
:101250007109EE81FF81DF01A41BB50BAD01421BBB
:10126000530B14C0DA01EC01EE81FF81E61BF70B92
:101270003197F7FD0DC0EC014E815F81E417F50752
:101280003CF4AF01BD010E94DB1002C00E9442117C
:10129000DF91CF911F910F9108950F931F93DC0160
:1012A0005696EC915697E23061F0E33009F1E13067
:1012B00081F51496ED91FC911597E41BF50B319790
:1012C00023C0DC011496ED91FC911597DF01A61B5C
:1012D000B70BBD01DC011696ED91FC911797DF016C
:1012E000A41BB50BAD0141505109621B730B11C01A
:1012F000FA01DC0116964D915C911797DA01A61B55
:10130000B70BBD01621B730BAB01BF010E94421101
:101310000CC057FD0AC0DC011696ED91FC911797A1
:101320004E175F0714F40E94DB101F910F91089570
:101330008F929F92AF92CF92EF92FF920F931F9353
:10134000CF93DF93EC01262F898D9A8D009709F0BA
:1013500042C06A3059F41D861C862D898E859F8572
:1013600038E0239F800D911D112443C06D3009F496
:10137000AAC08F898823C9F03C898C859D8546E069
:10138000349F800D911D11244885598548175907B0
:1013900064F41D861C863D898E859F8548E0349FB8
:1013A000800D911D11249F878E87EA88FB8808890C
:1013B00019894E855F856C857D85AD88CC88CE0189
:1013C0000E94A70E2C898C859D8536E0239F800D79
:1013D000911D11243EC06A3079F41D861C862D892A
:1013E000FC013696E4918E859F852E9F800D911D80
:1013F00011249F878E8767C06D3009F464C0FC019B
:1014000034963491631708F45EC03196E491E61780
:1014100008F459C0462F431B342FFC0132968590A7
:10142000949047E0349F800C911C1124F401329673
:1014300034913196E491332311F0E1110DC0F401A0
:101440003496E4912C898C859D85E29F800D911DB9
:1014500011249D878C8737C0F401359644915F89AC
:10146000552319F15C89E32FF0E0E40FF11D47FDEE
:10147000FA955E9FB0015F9F700D11244C855D85CC
:10148000460F571F688579856417750774F41D86A4
:101490001C863D89FC013696E4918E859F853E9F92
:1014A000800D911D11249F878E87EA88FB8808890B
:1014B00019894E855F856C857D85AD88CC88CE0188
:1014C0000E94A70EBCCF81E090E0DF91CF911F91E9
:1014D0000F91FF90EF90CF90AF909F908F900895D5
:1014E0006115710579F0FB0101900020E9F7319752
:1014F000AF01461B570BDC01ED91FC910280F3819B
:10150000E02D099480E090E008958F929F92AF9231
:10151000BF92EF92FF920F931F93CF93DF93CDB7BC
:10152000DEB7A1970FB6F894DEBF0FBECDBF7C012A
:10153000FA01CB0119A2223008F42AE08E010F5DD6
:101540001F4F822E912CA12CB12CBF01A50194011B
:101550000E94F51EF901CA01015011096A3014F404
:10156000605D01C0695CD8016C93232B242B252B73
:1015700061F7B801C7010E94700AA1960FB6F894EE
:10158000DEBF0FBECDBFDF91CF911F910F91FF90B6
:10159000EF90BF90AF909F908F9008957F928F9221
:1015A0009F92AF92BF92CF92DF92EF92FF920F93F2
:1015B0001F93CF93DF938C016A017B01722E9A01F6
:1015C000AB01C701B6010E94F01E882319F06AE53D
:1015D00071E027C046015701E894B7F82FEF3FEFBD
:1015E0004FE75FE7C501B4010E94F01E81110DC0F5
:1015F0002FEF3FEF4FE75FE7C501B4010E94821C68
:1016000018161CF46EE571E00CC02FEF3FEF4FE7AA
:101610005FE4C701B6010E94EB1E181694F462E65F
:1016200071E0C801DF91CF911F910F91FF90EF9072
:10163000DF90CF90BF90AF909F908F907F900C9451
:10164000700A2FEF3FEF4FE75FECC701B6010E9432
:10165000821C87FDE4CF20E030E0A901C701B6017C
:101660000E94821C87FF0FC0D801ED91FC91019070
:10167000F081E02D6DE2C8010995EC01F7FAF094D4
:10168000F7F8F09402C0C0E0D0E0B12C60E070E068
:1016900080E09FE37B1441F020E030E040E251E441
:1016A0000E944A1EB394F6CFA70196010E94DE1D48
:1016B0006B017C010E94BC1E4B015C012AE0AB0166
:1016C000BC01C8010E94850AC80FD91F7720E9F123
:1016D000C501B4010E94871C9B01AC01C701B60182
:1016E0000E94DD1D6B017C01D801ED91FC91019000
:1016F000F081E02D6EE2C8010995C80FD91F20E0E6
:1017000030E040E251E4C701B6010E94E81C4B0101
:101710005C010E94BC1E6B01E12CF12C2AE0B70198
:10172000A601C8010E94850AC80FD91FC701B601CA
:101730000E94871C9B01AC01C501B4010E94DD1D04
:101740006B017C017A947110DACFCE01DF91CF91D9
:101750001F910F91FF90EF90DF90CF90BF90AF90CF
:101760009F908F907F9008951F920F920FB60F92C7
:1017700011242F933F934F935F936F937F938F9396
:101780009F93AF93BF93EF93FF938FEF91E00E94EE
:10179000EA05FF91EF91BF91AF919F918F917F915A
:1017A0006F915F914F913F912F910F900FBE0F90CE
:1017B0001F9018951F920F920FB60F9211242F931E
:1017C0008F939F93EF93FF93E0910F02F09110029C
:1017D0008081E0911502F091160282FD12C0908185
:1017E000809118028F5F8F7320911902821751F038
:1017F000E0911802F0E0E150FE4F958F80931802BF
:1018000001C08081FF91EF919F918F912F910F9057
:101810000FBE0F901F90189508958EBD00000DB457
:1018200007FEFDCF8EB508951F93CF93DF93FC0184
:10183000858D968D009729F1162FEF0121A131E0BA
:101840003093DB012093FD011092DC011092FE0128
:10185000DC01ED91FC910190F081E02D60E00995B3
:101860008D8D9E8DDC01ED91FC910190F081E02D3C
:10187000612F09958D8D9E8DDF91CF911F910C94D5
:10188000D40CA5A5B6A59C9183A9809589238C939A
:10189000838D948D892B31F0862FDF91CF911F910D
:1018A0000C940D0C28E030E080E8A1A5B2A591A928
:1018B000462F482319F04C91942B03C04C919095DE
:1018C00094239C93A3A5B4A54C9192A9942B9C938B
:1018D000A3A5B4A54C9192A9909594239C93869529
:1018E0002150310911F7DF91CF911F9108958CBDDF
:1018F0009DBD08951F93CF93DF93EC01162F8D8D1F
:101900009E8D892BB1F02FA938AD49AD5AAD60E05D
:1019100074E284EF90E00E94F51EDA01C90140975D
:10192000A109B109B695A795979587958093B800B9
:101930000FC08B8D9C8D892B21F08DA99EA90E94B3
:10194000770CEFA5F8A990818CA9809589238083D5
:10195000111102C066EA01C067EACE010E94140CB0
:101960008D8D9E8D892BB1F02BAD3CAD4DAD5EAD17
:1019700060E074E284EF90E00E94F51EDA01C90194
:101980004097A109B109B695A7959795879580933A
:10199000B80006C0EFA5F8A990818CA9892B808397
:1019A000DF91CF911F9108953091FE01313208F0FF
:1019B0004BC08091DA018111FCCF9091FD0122E0B2
:1019C0002093DA0121E02093D9012FEF2093D80151
:1019D0001092D7013093D601EDEDF1E0A6EBB1E026
:1019E00020E0321721F041914D932F5FFACF1092F2
:1019F000B5012091B501990F922B9093B50190916B
:101A0000B401913061F41092B4019091B5019093BA
:101A1000BB009091BC0093FDF8CF95EC01C095EE12
:101A20009093BC009091DA019230E1F39091D8014B
:101A30009F3F79F08091D801803241F08091D801A8
:101A4000803331F084E005C081E003C082E001C052
:101A500083E01092DC011092FE011092DB010895E8
:101A6000DF92EF92FF920F931F93CF93DF93D82EC5
:101A7000D92FC62F80910D0390910E03009709F482
:101A800054C02091110331E03093DB012093FD011C
:101A90001092DC011092FE01DC01ED91FC910190AD
:101AA000F081E02D60E00995ED2CFD2E11E0D1E0F4
:101AB00080910D0390910E03CC2371F11032C8F088
:101AC0000E94D40C80911103D093DB018093FD011F
:101AD0001092DC011092FE0180910D0390910E0393
:101AE000DC01ED91FC910190F081E02D60E0099521
:101AF00011E080910D0390910E03F7016491DC01D8
:101B0000ED91FC910190F081E02D09951F5FC1508E
:101B1000BFEFEB1AFB0ACCCFDF91CF911F910F9152
:101B2000FF90EF90DF900C94D40CE0911D03F091A6
:101B30001E039081809123038095892380830D2D3E
:101B40001D2FCC2309F439C0F801849120910B0397
:101B500030910C03232B31F00E940D0CC1500F5F0C
:101B60001F4FEFCF28E030E040E8E0911903F091FB
:101B70001A0390912103582F542319F05081952B6B
:101B800003C05081909595239083E0911B03F091C1
:101B90001C03508190912203952B9083E0911B03AD
:101BA000F0911C035081909122039095952390838E
:101BB000469521503109C9F6D1CFDF91CF911F91C0
:101BC0000F91FF90EF90DF9008952091F6023091F1
:101BD000F702C901079697FD079623E0959587952B
:101BE0002A95E1F72091F4023091F502829FA0013D
:101BF000839F500D929F500D112460E070E0809102
:101C00000F03909110030C9412213F924F925F9218
:101C10006F927F928F929F92AF92BF92CF92DF92FC
:101C2000EF92FF920F931F93CF93DF9300D000D0DA
:101C300000D0CDB7DEB72C013B014A015901C901E3
:101C4000079697FD07969C0193E0359527959A9501
:101C5000E1F73C832B83C12CD12CE12CF12C312CCE
:101C6000C3018E0D9F1D9A838983E016F106C4F58A
:101C70001E821D822D813E812A153B054CF5C9012E
:101C800087709927892B11F0330C0EC0ED81FE81EE
:101C9000F7FD379683E0F595E7958A95E1F7EC0D2A
:101CA000FD1DE80DF91D349037FE0CC021E030E039
:101CB00049815A816D817E81640D751D80EF92E0AE
:101CC0000E9455138D819E8101969E838D83D2CF74
:101CD0009FEFE91AF90A2B813C81C20ED31EC0CFB7
:101CE00026960FB6F894DEBF0FBECDBFDF91CF9121
:101CF0001F910F91FF90EF90DF90CF90BF90AF902A
:101D00009F908F907F906F905F904F903F9008953D
:101D100090E0FC01EC54FA4F2491FC01E056FA4F9C
:101D20008491882399F090E0880F991FFC01EA566E
:101D3000FA4FA591B491FC01E457FA4F8591949123
:101D40008FB7F894EC91E22BEC938FBF08952F920C
:101D50003F924F925F926F927F928F929F92AF923B
:101D6000BF92CF92DF92EF92FF920F931F93CF9388
:101D7000DF93CDB7DEB76B970FB6F894DEBF0FBE1B
:101D8000CDBF9B8F8A8F1B014A01D22E19870887EE
:101D90003701A982DC0159962D913C915A97211562
:101DA000310509F0FFC018968D919C91199768171D
:101DB00079070CF0E7C11A968D919C911B974817F3
:101DC00059070CF0DFC1EC2DF0E0FB83EA839B01A7
:101DD00046E0C49E200D311D11243D872C8712162C
:101DE00013060CF0CFC16A2D70E07B876A8783E011
:101DF000660F771F8A95E1F77F876E87CB01880D85
:101E0000991D181619060CF0BDC158968C918111B8
:101E100004C08FEA8D1508F4D394AA8DBB8DED9183
:101E2000FC9111970284F385E02DCD010995B5E071
:101E3000DB9EC0011124EC2DF0E0F98BE88B9101C1
:101E40002B5F3F4F3B8B2A8B3D822C822101AC01C3
:101E5000421953095D8B4C8B7981672F70E07F8B22
:101E60006E8BC4010896998F888FEC89FD89E40DEB
:101E7000F51DE457FF4FD49054019F828E82D0FE0F
:101E800016C0AA8DBB8DED91FC91B1E0CB1209C0BB
:101E90002981213031F40484F585E02D28853985A8
:101EA00019C00684F785E02DE884F9841DC04885B3
:101EB00059854615570519F1AA8DBB8DED91FC91F9
:101EC000B1E0CB120DC02981213051F40484F58595
:101ED000E02D9301A501B2018A8D9B8D09950FC05C
:101EE0000684F785E02D73010A851B852A813B81D5
:101EF0004E815F816C817D818A8D9B8D0995D69401
:101F00003FEFA31AB30A4E815F816E897F89460F26
:101F1000571F5F834E83888D998DA816B90609F0E7
:101F2000AECF9FEF491A590AAC81BD81E889F98982
:101F3000AE0FBF1FBD83AC832A893B89421653066F
:101F400009F093CF488559854615570509F4F8C01F
:101F5000AA8DBB8DED91FC91B1E0CB1211C029810E
:101F6000213071F4B1016B5F7F4F0088F189E02D62
:101F7000830128E030E0A4018A8D9B8D0995E0C0A3
:101F80006C857D854A815B81641B750B0684F785B2
:101F9000E02D73010E851F859A01A4018A8D9B8D0A
:101FA0000995CEC0F9013496E491DE1AF901329612
:101FB00085919491B7E0DB9E800D911D1124F9016C
:101FC000259134913B8B2A8BFC0125913491590149
:101FD000FC0132965490319634913C87329674903D
:101FE0003196149141E04C1518F05981523068F047
:101FF000672D072C000C770B7D836C83812F012EBE
:10200000000C990B9B838A8304C01B821A821D8259
:102010001C82AA8DBB8DED91FC9111970284F385F2
:10202000E02DCD010995412CD12C612CF981EF2FA8
:10203000F0E0FF83EE832C2D30E03B872A87A4015C
:10204000410F511D17FD5A955F8B4E8BB101670DE6
:10205000711D77FC7A95798F688F7C85671608F0FB
:102060006FC0262D30E04A815B81420F531FAE8145
:10207000BF81A49FC001A59F900DB49F900D112416
:10208000F401E80FF91FF98BE88B842D712C4E8930
:102090005F89420F531F5D8B4C8B751408F04DC048
:1020A00051E0580F5E87877041F4C5010196EA89B7
:1020B000FB89EA0DFB1DD4905C01D7FE3AC061E0BC
:1020C000C61216C07981713099F4AA8DBB8DED913D
:1020D000FC9111970484F585E02D288539854C897C
:1020E0005D89688D798D670D711DCD01099521C0C0
:1020F0008C819D81870D911DEA85FB858E9FB001A6
:102100008F9F700D9E9F700D1124620D731DAA8DFF
:10211000BB8DED91FC9111970684F785E02DE88445
:10212000F9840E811F812A853B8548895989CD0113
:102130000995DD0C73948E85B0CF450C63948DCFDB
:10214000AA8DBB8DED91FC9111970688F789E02D42
:10215000CD016B960FB6F894DEBF0FBECDBFDF91F9
:10216000CF911F910F91FF90EF90DF90CF90BF9094
:10217000AF909F908F907F906F905F904F903F9027
:102180002F9009946B960FB6F894DEBF0FBECDBFAB
:10219000DF91CF911F910F91FF90EF90DF90CF9043
:1021A000BF90AF909F908F907F906F905F904F9077
:1021B0003F902F9008950F931F93CF93DF9377FF56
:1021C00004C0260F371F60E070E0DC011496CD914B
:1021D000DC911597FB01E20FF31FCE17DF071CF40C
:1021E0009E01261B370B121613060CF046C0FA018F
:1021F00057FD3796DF01E3E0B595A795EA95E1F73E
:10220000AC9FF001AD9FF00DBC9FF00D11246E0F3F
:102210007F1FDC015F96ED91FC919097E60FF71F11
:102220004770552781E090E001C0880F4A95EAF792
:10223000482F0130110539F078F002301105E9F42A
:102240002E0F3F1F13C02E0F3F1FE217F307A9F0F9
:102250008081842B8193F9CF80952E0F3F1FE21749
:10226000F30759F0908198239193F9CFE217F30780
:1022700021F0808184278193F9CFDF91CF911F9145
:102280000F910895EF92FF920F931F93CF93DF93D7
:10229000EC0177FDA5C0EC80FD806E157F050CF08C
:1022A0009FC057FF04C0240F351F40E050E08E81CF
:1022B0009F81FA01E20FF31F8E179F071CF49C0108
:1022C000241B350B121613060CF08AC0922F842F94
:1022D0008695869586958E9DD0018F9DB00D112493
:1022E0006A0F7B1FAF8DB8A1A60FB71F4770B1F162
:1022F00088E0841B482F682F70E0FB01EC57FF4FEC
:10230000E491281798F4621B71092FEF30E002C0A6
:10231000359527956A95E2F7E2230130110549F0DA
:1023200078F00230110509F05BC00EC001301105D4
:1023300019F48C91E82B0AC00130110508F049C04E
:10234000E0958C91E82302C08C91E827EC939417D8
:1023500008F446C02C813D81A20FB31FE92FE41B76
:10236000E830F8F00230110561F48E2F9C919095C1
:102370009C932C813D81A20FB31F88508830B0F709
:102380000FC081E00115110509F480E081959E2FB1
:102390008C932C813D81A20FB31F98509830C0F7C9
:1023A000E770EE23E9F0F0E0E458FF4FE4910130EC
:1023B000110539F048F00230110591F48C91E827AD
:1023C00006C08C91E82B03C0E0958C91E823EC9338
:1023D00007C00230110509F4B7CFAE0DBF1DBECF47
:1023E000DF91CF911F910F91FF90EF90089590E0B2
:1023F000FC01E859FF4F2491FC01EC54FA4F349151
:10240000FC01E056FA4FE491EE2309F43CC022238C
:1024100039F1233091F038F42130A9F0223001F560
:1024200084B58F7D12C0273091F02830A1F0243080
:10243000B9F4809180008F7D03C0809180008F77F8
:10244000809380000DC084B58F7784BD09C08091D2
:10245000B0008F7703C08091B0008F7D8093B00073
:10246000F0E0EE0FFF1FE457FA4FA591B4919FB72C
:10247000F894611104C08C913095382302C0EC911E
:102480003E2B3C939FBF08958F929F92AF92BF9235
:10249000CF92DF92EF92FF926B017C010E9480123B
:1024A0004B015C01C114D104E104F104F1F00E947C
:1024B0008012DC01CB0188199909AA09BB09883E61
:1024C0009340A105B10570F321E0C21AD108E108DB
:1024D000F10888EE880E83E0981EA11CB11CC1147F
:1024E000D104E104F10419F7DDCFFF90EF90DF9004
:1024F000CF90BF90AF909F908F9008950E9404213D
:102500003FB7F89480913E0390913F03A091400320
:10251000B091410326B5A89B05C02F3F19F0019645
:10252000A11DB11D3FBFBA2FA92F982F8827820F59
:10253000911DA11DB11DBC01CD0142E0660F771FA9
:10254000881F991F4A95D1F708951F920F920FB6D1
:102550000F9211242F933F938F939F93AF93BF9329
:1025600080913A0390913B03A0913C03B0913D03CD
:102570003091390323E0230F2D3720F40196A11D5C
:10258000B11D05C026E8230F0296A11DB11D2093A1
:10259000390380933A0390933B03A0933C03B09399
:1025A0003D0380913E0390913F03A0914003B09181
:1025B00041030196A11DB11D80933E0390933F03FB
:1025C000A0934003B0934103BF91AF919F918F912E
:1025D0003F912F910F900FBE0F901F901895EF9283
:1025E000FF920F931F93CF93DF93EC011982188210
:1025F0001B821A821D821C8261157105B9F17B0153
:10260000FB0101900020E9F731978F01061B170BA2
:10261000B8016F5F7F4F80E090E00E943E200097FE
:1026200059F0998388831B830A832C813D81232B56
:1026300081F4FC0110820DC088819981009711F00E
:102640000E94B51F198218821D821C821B821A8269
:102650000DC01D830C83B70188819981DF91CF91D3
:102660001F910F91FF90EF900C941921DF91CF9162
:102670001F910F91FF90EF9008950F931F93DC012E
:10268000ED91FC91068CF78DE02D09951F910F912E
:1026900008950F931F93DC01ED91FC91048CF58D4F
:1026A000E02D09951F910F910895DC01ED91FC91AA
:1026B0000084F185E02D09942F923F924F925F9212
:1026C0006F927F928F929F92AF92BF92CF92DF9242
:1026D000EF92FF920F931F93CF93DF9300D000D020
:1026E00000D0CDB7DEB72C017E836D836A0159011E
:1026F000C801FC82EB824801841A950A97FE03C048
:1027000091948194910835012D813E81621A730A5A
:1027100077FE03C0719461947108681479045CF4C5
:102720003A2D2B2D5C01832F922F3D812E81DE824D
:10273000CD82C32ED22EAD81BE81AA16BB065CF41B
:102740003C2D2D2D6C01832F922F3D812E81BE8239
:10275000AD82A32EB22E85012D813E81021B130B6B
:102760001C012C183D0837FE03C031942194310818
:10277000780117FF03C03FEFE31AF30AF594E794DB
:10278000C816D9062CF08FEF9FEF9A83898304C077
:10279000A1E0B0E0BA83A9832D813E81A216B306E1
:1027A00024F1D201ED91FC910484F585E02D2B817B
:1027B0003C816814790424F44D815E81B60103C024
:1027C000A6016D817E81C2010995E218F308F7FE2A
:1027D00006C029813A81C20ED31EE00EF11E8D8102
:1027E0009E8101969E838D83D7CF26960FB6F8944F
:1027F000DEBF0FBECDBFDF91CF911F910F91FF9034
:10280000EF90DF90CF90BF90AF909F908F907F9090
:102810006F905F904F903F902F90089585ED80933B
:10282000BC008091BC0084FDFCCF1092DA010895B9
:1028300040918203262F30E0240F311D21323105D3
:10284000DCF42091DA012430C9F4FC0180E090E04E
:10285000861758F4309182032191DC01AE59BC4FA8
:10286000A30FB11D2C930196F3CF80918203680FC3
:102870006093820380E0089581E0089582E00895E6
:1028800008950895E091350380913403E81730F4FA
:10289000F0E0EE5BFC4F808190E008958FEF9FEFBA
:1028A00008959091350380913403981750F4E92FDF
:1028B000F0E0EE5BFC4F208130E09F5F90933503AA
:1028C00002C02FEF3FEFC90108958091340390E0DB
:1028D00020913503821B91090895CF92DF92EF92E8
:1028E000FF920F931F93CF93DF937C01CB018A015B
:1028F0002091DB01222389F0EB016B01C40ED51E70
:10290000CC15DD0569F06991D701ED91FC9101903D
:10291000F081E02DC7010995F3CF642F0E941814B0
:10292000C801DF91CF911F910F91FF90EF90DF9041
:10293000CF900895CF93DF931F92CDB7DEB7698311
:102940002091DB012223D1F02091FE01203240F0C2
:1029500021E030E0FC013383228380E090E015C069
:102960008091DC01E82FF0E0E352FE4F99819083E3
:102970008F5F8093DC018093FE0105C061E0CE0192
:1029800001960E94181481E090E00F90DF91CF91A2
:102990000895089580E090E008951F920F920FB679
:1029A0000F9211242F933F934F935F936F937F93D5
:1029B0008F939F93AF93BF93EF93FF938091B90051
:1029C000887F803609F49CC068F5883209F45BC0C2
:1029D00090F4803109F454C038F4882309F4F6C027
:1029E000883009F44DC0F6C0883109F44CC08032FB
:1029F00009F45DC0EFC0803409F468C048F4803346
:102A000009F455C0883309F0E5C08093D801D8C0D7
:102A1000803509F44FC0883509F45DC0883409F069
:102A2000D9C0D6C0883909F4C7C0A8F4883709F4DA
:102A300067C038F4883609F463C0803709F460C091
:102A4000C9C0883809F4B8C0803909F45FC080383B
:102A500009F0C0C05BC0803B09F486C038F4803AFE
:102A600009F466C0883A09F47FC0B4C0803C09F418
:102A7000A7C0883C09F4A4C0883B09F48AC0AAC056
:102A80008091B50110C09091D7018091D60198171F
:102A900070F5E091D70181E08E0F8093D701F0E0CF
:102AA000EA54FE4F80818093BB0085EC86C0809302
:102AB000D8018EC0E091D70181E08E0F8093D701BD
:102AC0008091BB00F0E0EA54FE4F80839091D701E3
:102AD0008091D6016EC0E091D70181E08E0F809386
:102AE000D7018091BB00F0E0EA54FE4F80838091D3
:102AF000D90181116DC081E08093B40184EA61C085
:102B000083E08093DA011092A403CFCF8091A403D5
:102B1000803208F051C0E091A40381E08E0F8093D1
:102B2000A4038091BB00F0E0EC57FC4F8083BDCF45
:102B300085EC8093BC001092DA018091A40380326E
:102B400030F4E091A403F0E0EC57FC4F1082609168
:102B5000A40370E0E0913003F091310384E893E046
:102B600009951092A40336C084E08093DA01109294
:102B7000830310928203E0913203F09133030995AD
:102B800080918203811105C081E0809382031092BD
:102B90006203E091830381E08E0F80938303F0E072
:102BA000EE59FC4F80818093BB009091830380910C
:102BB0008203981708F479CF85E88093BC000AC097
:102BC00085EC8093BC001092DA0104C01092D80109
:102BD0000E940E14FF91EF91BF91AF919F918F9141
:102BE0007F916F915F914F913F912F910F900FBE09
:102BF0000F901F901895CF92DF92EF92FF920F9354
:102C00001F93CF93DF93CDB7DEB72C970FB6F89411
:102C1000DEBF0FBECDBF67EA71E0CE0101960E9414
:102C2000EF126EEA71E0CE0107960E94EF120E9449
:102C3000E50D81E0809304038093050381E090E03B
:102C40009093030380930203909301038093000306
:102C50008AE090E09093FD028093FC021092FF02C4
:102C60001092FE024D815E8169817A8180EF92E04F
:102C70000E94790567E971E080EF92E00E94700A96
:102C80008AE590E09093FD028093FC021092FF028F
:102C90001092FE024B855C856F81788580EF92E013
:102CA0000E94790582E0809304038093050383E208
:102CB00090E09093FD028093FC028FE090E090936F
:102CC000FF028093FE02409100015091010160914A
:102CD00002017091030122E080EF92E00E94CE0A8F
:102CE00080910D0390910E03892BD1F02091270341
:102CF000309128034091290350912A0360E074E247
:102D000084EF90E00E94F51EDA01C9014097A10905
:102D1000B109B695A795979587958093B80016C089
:102D200080910B0390910C03892B31F08091250346
:102D3000909126030E94770CE0911F03F0912003ED
:102D400090818091240380958923808365E084E9C4
:102D50009AE00E94300D6091F402615080EF92E0A1
:102D60000E94140C2091F6023091F702C9010796D7
:102D700097FD079633E0959587953A95E1F7209171
:102D8000F4023091F502829F7001839FF00C929FB4
:102D9000F00C112400910F031091100380910D038A
:102DA00090910E03E00EF11E009709F44EC02091A1
:102DB000110331E03093DB012093FD011092DC011F
:102DC0001092FE01DC01ED91FC910190F081E02D6B
:102DD00060E40995DD24D394CC24C39480910D0341
:102DE00090910E03E016F10669F1BFE1BD15D0F434
:102DF0000E94D40C80911103C092DB018093FD01ED
:102E00001092DC011092FE0180910D0390910E034F
:102E1000DC01ED91FC910190F081E02D60E40995D9
:102E2000DD24D39480910D0390910E03F8016191FC
:102E30008F01DC01ED91FC910190F081E02D09956D
:102E4000D394CCCF0E94D40C43C0E0911D03F091E9
:102E50001E03908180912303892B80830E151F050B
:102E6000B9F1F80181918F0120910B0330910C038E
:102E7000232B19F00E940D0CF1CF28E030E040E840
:102E8000E0911903F0911A0390912103582F5423D4
:102E900019F05081952B03C0508190959523908314
:102EA000E0911B03F0911C03508190912203952B1C
:102EB0009083E0911B03F0911C03508190912203B9
:102EC000909595239083469521503109C9F6C6CF38
:102ED00080910D0390910E03892BD1F020912B034B
:102EE00030912C0340912D0350912E0360E074E249
:102EF00084EF90E00E94F51EDA01C9014097A10914
:102F0000B109B695A795979587958093B80011C09C
:102F1000E0911F03F0912003908180912403892B7D
:102F2000808380910B0390910C03892B11F00E94F8
:102F30000C0C8F8198850E94B51F89819A810E940F
:102F4000B51F2C960FB6F894DEBF0FBECDBFDF9134
:102F5000CF911F910F91FF90EF90DF90CF90089548
:102F6000EFEFF1E01382128248EE53E060E070E090
:102F700044835583668377838EE091E091838083D9
:102F800085EC90E09587848784EC90E0978786872E
:102F900080EC90E0918B808B81EC90E0938B828B26
:102FA00082EC90E0958B848B86EC90E0978B868BFF
:102FB000118E128E138E148EA4EEB2E013961C9214
:102FC0001E92129714964D935D936D937C93179771
:102FD00080E291E011969C938E93E0EFF2E01382F1
:102FE000128220E830E03583248380E290E09783EA
:102FF00086833187208793878287168A1586148671
:103000001786168681E0858B848B2FEF3FEF338BFD
:10301000228B318B208B878B108E128E118E82E348
:1030200091E091838083148E138EB68FA58F10A2AA
:10303000178E8FEF84A385A386A387A384E080A740
:1030400080E585AB16AA80E89AE1A6E0B0E087AB00
:1030500090AFA1AFB2AF80EA96E8A1E0B0E083AF55
:1030600094AFA5AFB6AF66E671E08CE992E00E943E
:10307000EF126AE671E082EA92E00E94EF126EE6D9
:1030800071E088EA92E00E94EF1262E771E08EEA56
:1030900092E00E94EF1266E771E084EB92E00E94FA
:1030A000EF126AE771E08AEB92E00E94EF126EE79E
:1030B00071E080EC92E00E94EF1262E871E086EC31
:1030C00092E00E94EF1266E871E08CEC92E00E94C0
:1030D000EF126BE871E082ED92E00E94EF126FE870
:1030E00071E088ED92E00E94EF1263E971E08EEDED
:1030F00092E00C94EF12789484B5826084BD84B51C
:10310000816084BD85B5826085BD85B5816085BDE2
:1031100080916E00816080936E001092810080919A
:103120008100826080938100809181008160809322
:103130008100809180008160809380008091B10047
:1031400084608093B1008091B00081608093B00072
:1031500080917A00846080937A0080917A00826006
:1031600080937A0080917A00816080937A008091C8
:103170007A00806880937A001092C100E0910F027B
:10318000F091100282E08083E0910B02F0910C023A
:103190001082E0910D02F0910E0280E18083109286
:1031A0001702E0911302F091140286E08083E0910F
:1031B0001102F0911202808180618083E0911102FE
:1031C000F0911202808188608083E0911102F09179
:1031D0001202808180688083E0911102F0911202D6
:1031E00080818F7D808389E00E94880E80910F030B
:1031F00090911003892BB9F52091F6023091F702D6
:10320000C901079697FD079613E0959587951A953E
:10321000E1F72091F4023091F502AC01429FC00128
:10322000439F900D529F900D11240E941D1F90935B
:10323000100380930F03892BB1F4CAE7DAE0FE0193
:103240006491611107C067E971E08FEF91E00E941E
:10325000700A08C08FEF91E00E940C062196892B1E
:1032600071F7F1CFFFCF0E94E50D2091F60230916A
:10327000F7028091F4029091F50221323105A4F019
:10328000B9016054710977FF02C06F5F7F4F759578
:1032900067958255910997FD019600E410E022E5BB
:1032A00030E04AEB57E013C0B9016052710977FF73
:1032B00002C06F5F7F4F759567958357910997FDA2
:1032C000019600E210E023E730E04AED55E09595E5
:1032D00087950E94050E82E08093120380910D0372
:1032E00090910E03892BB9F18CE380931103109216
:1032F0003503109234031092DC011092FE011092FB
:10330000DA0181E08093D9011092B40161E082E199
:103310000E94F71161E083E10E94F7118091B900EA
:103320008E7F8093B9008091B9008D7F8093B90022
:1033300088E48093B80085E48093BC0080E494E145
:10334000909333038093320381E494E190933103AB
:1033500080933003B6C0809116030E94880E80913E
:1033600017030E94880E80911603082E000C990BFB
:10337000FC01E056FA4FE491F0E0EE0FFF1FE45736
:10338000FA4F2591349130931E0320931D03FC01C5
:10339000EC54FA4FE491E093230380911703082E35
:1033A000000C990BFC01E056FA4FE491F0E0EE0FAF
:1033B000FF1FE457FA4FA591B491B0932003A09357
:1033C0001F03FC01EC54FA4FE491E09324038C9129
:1033D000E82BEC9380910B0390910C03892B89F1DE
:1033E000CFB7F89480913603811124C0EAEAF5E062
:1033F0008491EEEBF5E09491E82FF0E0EE0FFF1FE3
:10340000EA56FA4FA591B491EC91E92321F461E0D9
:103410008AE00E94F7118AE00E94880E8CB58061D4
:103420008CBD8CB580648CBD8DE00E94880E8BE0D5
:103430000E94880E809136038F5F80933603CFBF42
:1034400040C0809114030E94880E809115030E9451
:10345000880E80911403082E000C990BFC01E05695
:10346000FA4FE491F0E0EE0FFF1FE457FA4F259179
:10347000349130931A0320931903FC01EC54FA4F52
:10348000E491E093210380911503082E000C990B21
:10349000FC01E056FA4FE491F0E0EE0FFF1FE45715
:1034A000FA4FA591B491B0931C03A0931B03FC01A8
:1034B000EC54FA4FE491E09322038C91E095E823D9
:1034C000EC938091180387FD1DC00E94880E61E077
:1034D000809118030E94F71161E070E080E090E0B5
:1034E0000E94441260E0809118030E94F7116AE084
:1034F00070E080E090E00E94441261E08091180347
:103500000E94F71180910D0390910E03892BD1F049
:1035100020912703309128034091290350912A03D9
:1035200060E074E284EF90E00E94F51EDA01C901C8
:103530004097A109B109B695A7959795879580936E
:10354000B80016C080910B0390910C03892B31F0C9
:1035500080912503909126030E94770CE0911F0330
:10356000F0912003908180912403809589238083AA
:1035700064E086ED95E00E94300D6091F6026150A6
:1035800080EF92E00E94140C64E082ED95E00E94CE
:10359000300D80911203813011F064E101C060E1CF
:1035A00080EF92E00E94140C64E08EEC95E00E94A3
:1035B000300D8FE880932F038091F4029091F502F3
:1035C0008038910591F48091F6029091F702803451
:1035D0009105E9F480911203813011F08FEC01C064
:1035E0008FE980932F03C2E113C08036910579F4EF
:1035F0008091F6029091F702409749F4809112036E
:10360000813011F08FEA01C080E180932F03C2E086
:103610006AED80EF92E00E94140C6C2F80EF92E034
:103620000E94140C61E880EF92E00E94140C6091FB
:103630002F0380EF92E00E94140C69ED80EF92E07E
:103640000E94140C80911203813011F061EF01C0CF
:1036500062E280EF92E00E94140C66E088EC95E054
:103660000E94300D80910D0390910E03892BD1F0B3
:1036700020912B0330912C0340912D0350912E0368
:1036800060E074E284EF90E00E94F51EDA01C90167
:103690004097A109B109B695A7959795879580930D
:1036A000B80011C0E0911F03F09120039081809138
:1036B0002403892B808380910B0390910C03892B29
:1036C00011F00E940C0C0E94E50D0E94FB1501E711
:1036D00010E081E4B82EC0913703D091380389E01F
:1036E0000E94880E209711F460E004C0CF3FD105FE
:1036F00029F461E089E00E94F71142C0F801849149
:103700008330F9F048F48130B9F08230A1F584B506
:10371000806284BDC8BD34C08730E9F0883019F1BB
:10372000843049F580918000806280938000D0933E
:103730008B00C0938A0024C084B5806884BDC7BD57
:103740001FC080918000806880938000D0938900A2
:10375000C093880015C08091B00080688093B0004D
:10376000C093B3000DC08091B00080628093B00020
:10377000C093B40005C0C038D1050CF0BACFB4CFA7
:1037800080913703909138030A968F3F910509F095
:1037900028F4909338038093370304C010923803C1
:1037A000109237038FEF91E00E94D4051816190686
:1037B0006CF58FEF91E00E94B205C82E6AE971E0C6
:1037C0008FEF91E00E94700A0C2C000CDD08EE08CF
:1037D000FF08F7FE0EC06DE28FEF91E00E940C062D
:1037E00044275527BA014C195D096E097F092AE063
:1037F00003C02AE0B701A6018FEF91E00E94850A7D
:1038000067E971E08FEF91E00E94700AC0E4D0E0B8
:10381000C12CD12C7601B0927C0080917A0080641A
:1038200080937A0080917A0086FDFCCF60917800C9
:103830008091790070E0782B072E000C880B990B93
:103840000E94891C2AE038E240EA5BE30E94E81CFF
:103850002B013C0122E0AB01BC018FEF91E00E9403
:10386000CE0A67E971E08FEF91E00E94700A20E0D4
:1038700030E048EC52E4C301B2010E94E81C9B0115
:10388000AC01C701B6010E94DE1D6B017C012197CE
:1038900011F620E030E040E85CE30E94E81C609311
:1038A00000017093010180930201909303010E9433
:1038B000FB1560E177E280E090E00E9444120E94F4
:1038C0007B0609CFCF93DF93C4EED2E026978881A1
:1038D00099810E94B51F82E0CC39D807B9F782E3FD
:1038E00091E09093F1028093F00280910F03909108
:1038F0001003009721F0DF91CF910C94B51FDF9159
:10390000CF9108950E94C41C08F481E00895E894C2
:1039100009C097FB3EF490958095709561957F4F17
:103920008F4F9F4F9923A9F0F92F96E9BB279395C5
:10393000F695879577956795B795F111F8CFFAF4D5
:10394000BB0F11F460FF1BC06F5F7F4F8F4F9F4F06
:1039500016C0882311F096E911C0772321F09EE864
:10396000872F762F05C0662371F096E8862F70E0CA
:1039700060E02AF09A95660F771F881FDAF7880FA4
:103980009695879597F90895990F0008550FAA0BFA
:10399000E0E8FEEF16161706E807F907C0F0121662
:1039A0001306E407F50798F0621B730B840B950B65
:1039B00039F40A2661F0232B242B252B21F40895BA
:1039C0000A2609F4A140A6958FEF811D811D089557
:1039D0000E94FB1C0C946C1D0E945E1D38F00E941E
:1039E000651D20F0952311F00C94551D0C945B1D62
:1039F00011240C94A01D0E947D1D70F3959FC1F3AE
:103A0000950F50E0551F629FF001729FBB27F00D8C
:103A1000B11D639FAA27F00DB11DAA1F649F6627E1
:103A2000B00DA11D661F829F2227B00DA11D621F30
:103A3000739FB00DA11D621F839FA00D611D221FEA
:103A4000749F3327A00D611D231F849F600D211DCE
:103A5000822F762F6A2F11249F5750409AF0F1F051
:103A600088234AF0EE0FFF1FBB1F661F771F881FBA
:103A700091505040A9F79E3F510580F00C94551D80
:103A80000C94A01D5F3FE4F3983ED4F386957795A0
:103A90006795B795F795E7959F5FC1F7FE2B880F60
:103AA000911D9695879597F9089597F99F6780E8F6
:103AB00070E060E008959FEF80EC089500240A9480
:103AC0001616170618060906089500240A941216F9
:103AD0001306140605060895092E0394000C11F42C
:103AE000882352F0BB0F40F4BF2B11F460FF04C0D9
:103AF0006F5F7F4F8F4F9F4F089557FD9058440F32
:103B0000551F59F05F3F71F04795880F97FB991F3C
:103B100061F09F3F79F087950895121613061406F9
:103B2000551FF2CF4695F1DF08C016161706180686
:103B3000991FF1CF86957105610508940895E89461
:103B4000BB2766277727CB0197F908952F923F92DD
:103B50004F925F926F927F928F929F92AF92BF929D
:103B6000CF92DF92EF92FF920F931F93CF93DF9349
:103B7000CDB7DEB7CA1BDB0B0FB6F894DEBF0FBEA6
:103B8000CDBF09942A88398848885F846E847D84F3
:103B90008C849B84AA84B984C884DF80EE80FD80F5
:103BA0000C811B81AA81B981CE0FD11D0FB6F8946B
:103BB000DEBF0FBECDBFED0108955058BB27AA2729
:103BC0000E94F51D0C946C1D0E945E1D38F00E9431
:103BD000651D20F039F49F3F19F426F40C945B1D09
:103BE0000EF4E095E7FB0C94551DE92F0E947D1D16
:103BF00058F3BA17620773078407950720F079F422
:103C0000A6F50C949F1D0EF4E0950B2EBA2FA02D57
:103C10000B01B90190010C01CA01A0011124FF2779
:103C2000591B99F0593F50F4503E68F11A16F04074
:103C3000A22F232F342F4427585FF3CF4695379573
:103C40002795A795F0405395C9F77EF41F16BA0B38
:103C5000620B730B840BBAF09150A1F0FF0FBB1FE6
:103C6000661F771F881FC2F70EC0BA0F621F731F2F
:103C7000841F48F4879577956795B795F7959E3F8C
:103C800008F0B0CF9395880F08F09927EE0F97951D
:103C9000879508950E945E1E0C946C1D0E94651D00
:103CA00058F00E945E1D40F029F45F3F29F00C940B
:103CB000551D51110C94A01D0C945B1D0E947D1D7F
:103CC00068F39923B1F3552391F3951B550BBB274B
:103CD000AA2762177307840738F09F5F5F4F220F90
:103CE000331F441FAA1FA9F335D00E2E3AF0E0E887
:103CF00032D091505040E695001CCAF72BD0FE2FD1
:103D000029D0660F771F881FBB1F26173707480764
:103D1000AB07B0E809F0BB0B802DBF01FF2793581C
:103D20005F4F3AF09E3F510578F00C94551D0C946E
:103D3000A01D5F3FE4F3983ED4F386957795679591
:103D4000B795F7959F5FC9F7880F911D9695879551
:103D500097F90895E1E0660F771F881FBB1F621770
:103D600073078407BA0720F0621B730B840BBA0B2E
:103D7000EE1F88F7E09508950E94851D88F09F57F3
:103D800098F0B92F9927B751B0F0E1F0660F771F7F
:103D9000881F991F1AF0BA95C9F714C0B13091F075
:103DA0000E949F1DB1E008950C949F1D672F782FEE
:103DB0008827B85F39F0B93FCCF38695779567953A
:103DC000B395D9F73EF490958095709561957F4FA6
:103DD0008F4F9F4F08950E94C41C08F48FEF0895E1
:103DE0000E94C41C880B990B0895A1E21A2EAA1BED
:103DF000BB1BFD010DC0AA1FBB1FEE1FFF1FA2179B
:103E0000B307E407F50720F0A21BB30BE40BF50B97
:103E1000661F771F881F991F1A9469F76095709520
:103E2000809590959B01AC01BD01CF010895EE0FE7
:103E3000FF1F0590F491E02D09940F931F93CF93EA
:103E4000DF938230910510F482E090E0E091A703C7
:103E5000F091A80320E030E0A0E0B0E0309719F145
:103E6000408151810281138148175907C8F0841796
:103E7000950769F4109731F012960C9312971396E8
:103E80001C9327C00093A7031093A80322C02115F9
:103E9000310519F04217530718F49A01BD01EF01DB
:103EA000DF01F801DBCF21153105F9F0281B390BB3
:103EB0002430310580F48A819B816115710521F0E0
:103EC000FB019383828304C09093A8038093A7038C
:103ED000FE01329644C0FE01E20FF31F81939193DD
:103EE00022503109398328833AC02091A5033091AB
:103EF000A603232B41F42091060130910701309352
:103F0000A6032093A50320910401309105012115FA
:103F1000310541F42DB73EB7409108015091090198
:103F2000241B350BE091A503F091A603E217F307DC
:103F3000A0F42E1B3F0B2817390778F0AC014E5F19
:103F40005F4F2417350748F04E0F5F1F5093A603AD
:103F50004093A5038193919302C0E0E0F0E0CF018C
:103F6000DF91CF911F910F910895CF93DF93009729
:103F700009F481C0FC01329713821282A091A70339
:103F8000B091A803109781F420813181820F931F93
:103F90002091A5033091A6032817390751F5F09316
:103FA000A603E093A50367C0ED0120E030E0CE1743
:103FB000DF0740F44A815B819E0141155105F1F014
:103FC000EA01F5CFD383C28340815181840F951FCD
:103FD000C817D90759F488819981840F951F0296D3
:103FE000918380838A819B8193838283211531050C
:103FF00029F4F093A803E093A7033DC0E901FB83F4
:10400000EA8349915991C40FD51FEC17FD0761F45C
:1040100080819181840F951F0296E901998388839D
:10402000828193819B838A83E0E0F0E012968D91F8
:104030009C911397009719F0FD01DC01F7CF8D914A
:104040009C9111979D012E5F3F4F820F931F2091EE
:10405000A5033091A6032817390769F4309729F48E
:104060001092A8031092A70302C013821282B09389
:10407000A603A093A503DF91CF910895A0E0B0E03F
:10408000E4E4F0E20C94AA1DEC01009721F4CB01CA
:104090000E941D1FB4C0FC01E60FF71F9C012250B7
:1040A0003109E217F30708F4A8C0D9010D911C915A
:1040B000119706171707B0F00530110508F49BC0DB
:1040C000C80104978617970708F495C00250110994
:1040D000061B170B019311936D937C93CF010E94E4
:1040E000B51F89C05B01A01AB10A4C01800E911E58
:1040F000A091A703B091A803612C712CE12CF12CA5
:10410000109709F446C08D919C911197A815B90597
:10411000B1F56C0142E0C40ED11CCA14DB0478F185
:104120004C018A189B08640142E0C40ED11C12960F
:10413000BC9012971396AC91B5E0CB16D10440F029
:10414000B282A38391828082D9016D937C9309C04E
:104150000E5F1F4F800F911FF90191838083EB2D1C
:10416000FA2FE114F10431F0D7011396FC93EE938A
:10417000129741C0F093A803E093A7033CC06816D0
:10418000790608F43C017D0112960D90BC91A02D9A
:10419000B7CF8091A5039091A60388169906E1F404
:1041A00066167706C8F48091040190910501009786
:1041B00041F48DB79EB74091080150910901841BCD
:1041C000950BE817F907C8F4F093A603E093A5034D
:1041D000F901718360830FC0CB010E941D1F7C0118
:1041E000009759F0A801BE010E940921CE010E944A
:1041F000B51FC70104C0CE0102C080E090E0CDB77A
:10420000DEB7EEE00C94C61D81E090E0F8940C94CB
:104210002021FB01DC0102C001900D924150504071
:10422000D8F70895DC0101C06D9341505040E0F78C
:104230000895FB01DC0101900D920020E1F7089543
:1042400015E0CEE4D5E004C0FE010E94171F2196C0
:0A425000CF34D107C9F7F894FFCF6F
:10425A000000E0400000A9038000000000000C06F6
:10426A007905A3055906D405B205C6050000000064
:10427A009A146D14CA14F8086514511442140000F3
:10428A00000098097905CA14C9148506F808551357
:10429A00F90849133D135C13F80843077A0C090916
:1042AA004D0941082408B70758076E616E00696E08
:1042BA0066006F7666004A616E00466562004D616F
:1042CA007200417072004D6179004A756E004A753C
:1042DA006C004175670053657074004F6374004E3B
:1042EA006F7600446563000D0A00492072656365B4
:1042FA00697665643A2000466562203232003230BF
:04430A003A32300013
:107800000C94343C0C94513C0C94513C0C94513CE1
:107810000C94513C0C94513C0C94513C0C94513CB4
:107820000C94513C0C94513C0C94513C0C94513CA4
:107830000C94513C0C94513C0C94513C0C94513C94
:107840000C94513C0C94513C0C94513C0C94513C84
:107850000C94513C0C94513C0C94513C0C94513C74
:107860000C94513C0C94513C11241FBECFEFD8E036
:10787000DEBFCDBF11E0A0E0B1E0ECE9FFE702C060
:1078800005900D92A230B107D9F712E0A2E0B1E065
:1078900001C01D92AD30B107E1F70E942D3D0C945F
:1078A000CC3F0C94003C982F959595959595959582
:1078B000905D8F708A307CF0282F295A8091C0000B
:1078C00085FFFCCF9093C6008091C00085FFFCCF60
:1078D0002093C6000895282F205DF0CF982F809127
:1078E000C00085FFFCCF9093C6000895EF92FF92F1
:1078F0000F931F93EE24FF2487018091C00087FD22
:1079000017C00894E11CF11C011D111D81E4E8164B
:1079100082E4F8068FE0080780E0180770F3E09132
:107920000401F091050109958091C00087FFE9CF1E
:107930008091C6001F910F91FF90EF9008950E94D3
:10794000763C982F8091C00085FFFCCF9093C600B5
:1079500091362CF490330CF09053892F089597555D
:10796000892F08951F930E949F3C182F0E949F3CCF
:107970001295107F810F1F9108951F93182F882350
:1079800021F00E94763C1150E1F71F9108951F935A
:10799000182F0E94763C803249F0809103018F5F5E
:1079A000809303018530C1F01F9108958091C0003C
:1079B00085FFFCCF84E18093C6008091C00085FFE5
:1079C000FCCF1093C6008091C00085FFFCCF80E102
:1079D0008093C6001F910895E0910401F091050184
:1079E00009951F9108950E94763C803241F0809164
:1079F00003018F5F80930301853081F008958091AA
:107A0000C00085FFFCCF84E18093C6008091C00058
:107A100085FFFCCF80E18093C6000895E0910401CA
:107A2000F09105010995089540E951E08823A1F0FE
:107A30002D9A28EE33E0FA013197F1F721503040CA
:107A4000D1F72D9828EE33E0FA013197F1F7215064
:107A50003040D1F7815061F708953F924F925F9285
:107A60006F927F928F929F92AF92BF92CF92DF924E
:107A7000EF92FF920F931F93CF93DF93000080E16B
:107A80008093C4001092C50088E18093C10086E015
:107A90008093C2005098589A259A81E00E94143D24
:107AA00024E1F22E9EE1E92E85E9D82E0FE0C02ECA
:107AB00010E1B12EAA24A394B1E49B2EA6E58A2E50
:107AC000F2E57F2EE0E26E2E79E4572E63E5462E36
:107AD00050E5352E0E94763C8033B1F18133B9F107
:107AE000803409F46FC0813409F476C0823409F41B
:107AF00085C0853409F488C0803531F1823521F1A3
:107B0000813511F1853509F485C0863509F48DC0BC
:107B1000843609F496C0843709F403C1853709F423
:107B200072C1863709F466C0809103018F5F80932C
:107B30000301853079F6E0910401F0910501099582
:107B40000E94763C803351F60E94F33CC3CF0E94E2
:107B5000763C803249F78091C00085FFFCCFF092DF
:107B6000C6008091C00085FFFCCF9092C600809136
:107B7000C00085FFFCCF8092C6008091C00085FFC9
:107B8000FCCF7092C6008091C00085FFFCCF609250
:107B9000C6008091C00085FFFCCF5092C600809146
:107BA000C00085FFFCCF4092C6008091C00085FFD9
:107BB000FCCF3092C6008091C00085FFFCCFB09210
:107BC000C60088CF0E94763C863808F4BDCF0E945C
:107BD000763C0E94F33C7ECF0E94763C803809F4CC
:107BE0009CC0813809F40BC1823809F43CC1883942
:107BF00009F48FC080E00E94C73C6CCF84E10E94F2
:107C0000BD3C0E94F33C66CF85E00E94BD3C0E94D3
:107C1000F33C60CF0E94763C809306010E94763C44
:107C2000809307010E94F33C55CF0E94763C80333D
:107C300009F41DC183E00E94BD3C80E00E94C73C66
:107C400049CF0E94763C809309020E94763C809343
:107C5000080280910C028E7F80930C020E94763C79
:107C6000853409F415C18091080290910902892B8D
:107C700089F000E010E00E94763CF801E85FFE4FDA
:107C800080830F5F1F4F80910802909109020817AF
:107C9000190788F30E94763C803209F045CF809125
:107CA0000C0280FF01C16091060170910701660F0F
:107CB000771F7093070160930601A0910802B091AD
:107CC00009021097C9F0E8E0F1E09B01AD014E0F09
:107CD0005F1FF999FECF32BD21BD819180BDFA9A17
:107CE000F99A2F5F3F4FE417F50799F76A0F7B1F4B
:107CF00070930701609306018091C00085FFFCCF5F
:107D0000F092C6008091C00085FFFCCFB092C60003
:107D1000E1CE83E00E94C73CDDCE82E00E94C73CFA
:107D2000D9CE0E94763C809309020E94763C8093D3
:107D300008028091060190910701880F991F909386
:107D40000701809306010E94763C853409F4A6C0A1
:107D500080910C028E7F80930C020E94763C8032D0
:107D600009F0B8CE8091C00085FFFCCFF092C6002C
:107D7000609108027091090261157105B9F140E046
:107D800050E080910C02A82FA170B82FB27011C0E2
:107D9000BB2309F45CC0E0910601F0910701319624
:107DA000F0930701E09306014F5F5F4F46175707B7
:107DB000E8F4AA2369F3F999FECF209106013091E6
:107DC000070132BD21BDF89A90B58091C00085FFB2
:107DD000FCCF9093C6002F5F3F4F30930701209355
:107DE00006014F5F5F4F4617570718F38091C00099
:107DF00085FDE5CE8091C00085FFF8CFE0CE81E023
:107E00000E94C73C67CE0E94763C803209F08CCE3F
:107E10008091C00085FFFCCFF092C6008091C00029
:107E200085FFFCCFE092C6008091C00085FFFCCFAB
:107E3000D092C6008091C00085FFFCCFC092C600E2
:107E40008091C00085FFFCCFB092C60043CEE09188
:107E50000601F091070194918091C00085FFFCCF4D
:107E60009093C6009CCF80E10E94C73C33CE0E9415
:107E7000763C0E94763C182F0E94763C112309F430
:107E800083C0113009F484C08FE00E94C73C22CE29
:107E900080910C02816080930C02E5CE80910C02EF
:107EA000816080930C0259CF809107018823880F4D
:107EB000880B8A2180930B02809106019091070123
:107EC000880F991F90930701809306018091080203
:107ED00080FF09C080910802909109020196909359
:107EE000090280930802F894F999FECF1127E091D6
:107EF0000601F0910701C8E0D1E08091080290915D
:107F00000902103091F40091570001700130D9F34B
:107F100003E000935700E89500915700017001308D
:107F2000D9F301E100935700E89509901990009169
:107F3000570001700130D9F301E000935700E89534
:107F40001395103498F011270091570001700130FB
:107F5000D9F305E000935700E895009157000170B0
:107F60000130D9F301E100935700E895329602976A
:107F700009F0C7CF103011F00296E5CF112480919F
:107F8000C00085FFB9CEBCCE8EE10E94C73CA2CD19
:0C7F900085E90E94C73C9ECDF894FFCF0D
:027F9C00800063
:040000030000780081
:00000001FF
